{
  "contractName": "GradualPonzi",
  "abi": [
    {
      "constant": true,
      "inputs": [
        {
          "name": "",
          "type": "address"
        }
      ],
      "name": "balances",
      "outputs": [
        {
          "name": "",
          "type": "uint256"
        }
      ],
      "payable": false,
      "stateMutability": "view",
      "type": "function"
    },
    {
      "constant": true,
      "inputs": [
        {
          "name": "",
          "type": "uint256"
        }
      ],
      "name": "investors",
      "outputs": [
        {
          "name": "",
          "type": "address"
        }
      ],
      "payable": false,
      "stateMutability": "view",
      "type": "function"
    },
    {
      "constant": true,
      "inputs": [],
      "name": "MINIMUM_INVESTMENT",
      "outputs": [
        {
          "name": "",
          "type": "uint256"
        }
      ],
      "payable": false,
      "stateMutability": "view",
      "type": "function"
    },
    {
      "inputs": [],
      "payable": false,
      "stateMutability": "nonpayable",
      "type": "constructor"
    },
    {
      "payable": true,
      "stateMutability": "payable",
      "type": "fallback"
    },
    {
      "constant": false,
      "inputs": [],
      "name": "withdraw",
      "outputs": [],
      "payable": false,
      "stateMutability": "nonpayable",
      "type": "function"
    }
  ],
  "bytecode": "0x608060405234801561001057600080fd5b5060003390806001815401808255809150509060018203906000526020600020016000909192909190916101000a81548173ffffffffffffffffffffffffffffffffffffffff021916908373ffffffffffffffffffffffffffffffffffffffff1602179055505061041d806100866000396000f3fe608060405260043610610062576000357c0100000000000000000000000000000000000000000000000000000000900463ffffffff16806327e235e31461019b5780633ccfd60b146102005780633feb5f2b146102175780638a4660fe14610292575b66038d7ea4c68000341015151561007857600080fd5b600080805490503481151561008957fe5b04905060008090505b60008054905081101561013157816001600080848154811015156100b257fe5b9060005260206000200160009054906101000a900473ffffffffffffffffffffffffffffffffffffffff1673ffffffffffffffffffffffffffffffffffffffff1673ffffffffffffffffffffffffffffffffffffffff168152602001908152602001600020600082825401925050819055508080600101915050610092565b5060003390806001815401808255809150509060018203906000526020600020016000909192909190916101000a81548173ffffffffffffffffffffffffffffffffffffffff021916908373ffffffffffffffffffffffffffffffffffffffff1602179055505050005b3480156101a757600080fd5b506101ea600480360360208110156101be57600080fd5b81019080803573ffffffffffffffffffffffffffffffffffffffff1690602001909291905050506102bd565b6040518082815260200191505060405180910390f35b34801561020c57600080fd5b506102156102d5565b005b34801561022357600080fd5b506102506004803603602081101561023a57600080fd5b81019080803590602001909291905050506103a8565b604051808273ffffffffffffffffffffffffffffffffffffffff1673ffffffffffffffffffffffffffffffffffffffff16815260200191505060405180910390f35b34801561029e57600080fd5b506102a76103e6565b6040518082815260200191505060405180910390f35b60016020528060005260406000206000915090505481565b6000600160003373ffffffffffffffffffffffffffffffffffffffff1673ffffffffffffffffffffffffffffffffffffffff1681526020019081526020016000205490506000600160003373ffffffffffffffffffffffffffffffffffffffff1673ffffffffffffffffffffffffffffffffffffffff168152602001908152602001600020819055503373ffffffffffffffffffffffffffffffffffffffff166108fc829081150290604051600060405180830381858888f193505050501580156103a4573d6000803e3d6000fd5b5050565b6000818154811015156103b757fe5b906000526020600020016000915054906101000a900473ffffffffffffffffffffffffffffffffffffffff1681565b66038d7ea4c680008156fea165627a7a7230582049c3cf2ec191506d40692cf56cdcb2986ffe93573f5962dfe79f7dd4e74699030029",
  "source": "pragma solidity ^0.5.0;\r\n\r\ncontract GradualPonzi {\r\n    address[] public investors;\r\n    mapping(address => uint256) public balances;\r\n    uint256 public constant MINIMUM_INVESTMENT = 1e15;\r\n\r\n    constructor() public {\r\n        investors.push(msg.sender);\r\n    }\r\n\r\n    function() external payable {\r\n        require(msg.value >= MINIMUM_INVESTMENT);\r\n\r\n        uint256 eachInvestorGets = msg.value / investors.length;\r\n\r\n        for (uint256 i = 0; i < investors.length; i++) {\r\n            balances[investors[i]] += eachInvestorGets;\r\n        }\r\n        \r\n        investors.push(msg.sender);\r\n    }\r\n\r\n    function withdraw() public {\r\n        uint256 payout = balances[msg.sender];\r\n        balances[msg.sender] = 0;\r\n        msg.sender.transfer(payout);\r\n    }\r\n}\r\n",
  "sourcePath": "C:/Users/USER/Desktop/SOLIDITY/tutorial/contracts/realistic_ponzi.sol",
  "compiler": {
    "name": "solc",
    "version": "0.5.0+commit.1d4f565a.Emscripten.clang"
  },
  "schemaVersion": "3.4.0",
  "updatedAt": "2021-05-06T18:01:14.114Z",
  "networkType": "ethereum",
  "devdoc": {
    "methods": {}
  },
  "userdoc": {
    "methods": {}
  }
}