{
  "contractName": "SimplePonzi",
  "abi": [
    {
      "constant": true,
      "inputs": [],
      "name": "currentInvestor",
      "outputs": [
        {
          "name": "",
          "type": "address"
        }
      ],
      "payable": false,
      "stateMutability": "view",
      "type": "function"
    },
    {
      "constant": true,
      "inputs": [],
      "name": "currentInvestment",
      "outputs": [
        {
          "name": "",
          "type": "uint256"
        }
      ],
      "payable": false,
      "stateMutability": "view",
      "type": "function"
    },
    {
      "payable": true,
      "stateMutability": "payable",
      "type": "fallback"
    }
  ],
  "bytecode": "0x6080604052600060015534801561001557600080fd5b50610201806100256000396000f3fe60806040526004361061004c576000357c0100000000000000000000000000000000000000000000000000000000900463ffffffff168063523e27d414610128578063b2667cd01461017f575b6000600a600b6001540281151561005f57fe5b049050803411151561007057600080fd5b60008060009054906101000a900473ffffffffffffffffffffffffffffffffffffffff169050336000806101000a81548173ffffffffffffffffffffffffffffffffffffffff021916908373ffffffffffffffffffffffffffffffffffffffff160217905550346001819055508073ffffffffffffffffffffffffffffffffffffffff166108fc349081150290604051600060405180830381858888f19350505050158015610123573d6000803e3d6000fd5b505050005b34801561013457600080fd5b5061013d6101aa565b604051808273ffffffffffffffffffffffffffffffffffffffff1673ffffffffffffffffffffffffffffffffffffffff16815260200191505060405180910390f35b34801561018b57600080fd5b506101946101cf565b6040518082815260200191505060405180910390f35b6000809054906101000a900473ffffffffffffffffffffffffffffffffffffffff1681565b6001548156fea165627a7a72305820b552690665b15a65d06917a487f5c4b03ec884b4b51e31ef66b5fed18adb386b0029",
  "source": "pragma solidity ^0.5.0;\r\n\r\ncontract SimplePonzi {\r\n    address payable public currentInvestor;\r\n    uint256 public currentInvestment = 0;\r\n\r\n    function() external payable {\r\n        // new investments must be 10% greater than current\r\n        uint256 minimumInvestment = (currentInvestment * 11) / 10;\r\n        require(msg.value > minimumInvestment);\r\n\r\n        // document new investor\r\n        address payable previousInvestor = currentInvestor;\r\n        currentInvestor = msg.sender;\r\n        currentInvestment = msg.value;\r\n\r\n        // payout previous investor\r\n        previousInvestor.transfer(msg.value);\r\n    }\r\n\r\n}\r\n",
  "sourcePath": "C:/Users/USER/Desktop/SOLIDITY/tutorial/contracts/simple_ponzi.sol",
  "compiler": {
    "name": "solc",
    "version": "0.5.0+commit.1d4f565a.Emscripten.clang"
  },
  "schemaVersion": "3.4.0",
  "updatedAt": "2021-05-06T18:01:12.367Z",
  "devdoc": {
    "methods": {}
  },
  "userdoc": {
    "methods": {}
  }
}